{
  "contractName": "Congress",
  "abi": [
    {
      "constant": true,
      "inputs": [
        {
          "name": "",
          "type": "uint256"
        }
      ],
      "name": "proposals",
      "outputs": [
        {
          "name": "recipient",
          "type": "address"
        },
        {
          "name": "amount",
          "type": "uint256"
        },
        {
          "name": "description",
          "type": "string"
        },
        {
          "name": "votingDeadline",
          "type": "uint256"
        },
        {
          "name": "executed",
          "type": "bool"
        },
        {
          "name": "proposalPassed",
          "type": "bool"
        },
        {
          "name": "numberOfVotes",
          "type": "uint256"
        },
        {
          "name": "currentResult",
          "type": "int256"
        },
        {
          "name": "proposalHash",
          "type": "bytes32"
        }
      ],
      "payable": false,
      "stateMutability": "view",
      "type": "function"
    },
    {
      "constant": false,
      "inputs": [
        {
          "name": "targetMember",
          "type": "address"
        }
      ],
      "name": "removeMember",
      "outputs": [],
      "payable": false,
      "stateMutability": "nonpayable",
      "type": "function"
    },
    {
      "constant": false,
      "inputs": [
        {
          "name": "proposalNumber",
          "type": "uint256"
        },
        {
          "name": "transactionBytecode",
          "type": "bytes"
        }
      ],
      "name": "executeProposal",
      "outputs": [],
      "payable": false,
      "stateMutability": "nonpayable",
      "type": "function"
    },
    {
      "constant": true,
      "inputs": [
        {
          "name": "",
          "type": "address"
        }
      ],
      "name": "memberId",
      "outputs": [
        {
          "name": "",
          "type": "uint256"
        }
      ],
      "payable": false,
      "stateMutability": "view",
      "type": "function"
    },
    {
      "constant": true,
      "inputs": [],
      "name": "numProposals",
      "outputs": [
        {
          "name": "",
          "type": "uint256"
        }
      ],
      "payable": false,
      "stateMutability": "view",
      "type": "function"
    },
    {
      "constant": true,
      "inputs": [
        {
          "name": "",
          "type": "uint256"
        }
      ],
      "name": "members",
      "outputs": [
        {
          "name": "member",
          "type": "address"
        },
        {
          "name": "name",
          "type": "string"
        },
        {
          "name": "memberSince",
          "type": "uint256"
        }
      ],
      "payable": false,
      "stateMutability": "view",
      "type": "function"
    },
    {
      "constant": true,
      "inputs": [],
      "name": "debatingPeriodInMinutes",
      "outputs": [
        {
          "name": "",
          "type": "uint256"
        }
      ],
      "payable": false,
      "stateMutability": "view",
      "type": "function"
    },
    {
      "constant": true,
      "inputs": [],
      "name": "minimumQuorum",
      "outputs": [
        {
          "name": "",
          "type": "uint256"
        }
      ],
      "payable": false,
      "stateMutability": "view",
      "type": "function"
    },
    {
      "constant": true,
      "inputs": [],
      "name": "owner",
      "outputs": [
        {
          "name": "",
          "type": "address"
        }
      ],
      "payable": false,
      "stateMutability": "view",
      "type": "function"
    },
    {
      "constant": false,
      "inputs": [
        {
          "name": "_from",
          "type": "address"
        },
        {
          "name": "_value",
          "type": "uint256"
        },
        {
          "name": "_token",
          "type": "address"
        },
        {
          "name": "_extraData",
          "type": "bytes"
        }
      ],
      "name": "receiveApproval",
      "outputs": [],
      "payable": false,
      "stateMutability": "nonpayable",
      "type": "function"
    },
    {
      "constant": true,
      "inputs": [],
      "name": "majorityMargin",
      "outputs": [
        {
          "name": "",
          "type": "int256"
        }
      ],
      "payable": false,
      "stateMutability": "view",
      "type": "function"
    },
    {
      "constant": false,
      "inputs": [
        {
          "name": "beneficiary",
          "type": "address"
        },
        {
          "name": "weiAmount",
          "type": "uint256"
        },
        {
          "name": "jobDescription",
          "type": "string"
        },
        {
          "name": "transactionBytecode",
          "type": "bytes"
        }
      ],
      "name": "newProposal",
      "outputs": [
        {
          "name": "proposalID",
          "type": "uint256"
        }
      ],
      "payable": false,
      "stateMutability": "nonpayable",
      "type": "function"
    },
    {
      "constant": false,
      "inputs": [
        {
          "name": "beneficiary",
          "type": "address"
        },
        {
          "name": "etherAmount",
          "type": "uint256"
        },
        {
          "name": "jobDescription",
          "type": "string"
        },
        {
          "name": "transactionBytecode",
          "type": "bytes"
        }
      ],
      "name": "newProposalInEther",
      "outputs": [
        {
          "name": "proposalID",
          "type": "uint256"
        }
      ],
      "payable": false,
      "stateMutability": "nonpayable",
      "type": "function"
    },
    {
      "constant": false,
      "inputs": [
        {
          "name": "minimumQuorumForProposals",
          "type": "uint256"
        },
        {
          "name": "minutesForDebate",
          "type": "uint256"
        },
        {
          "name": "marginOfVotesForMajority",
          "type": "int256"
        }
      ],
      "name": "changeVotingRules",
      "outputs": [],
      "payable": false,
      "stateMutability": "nonpayable",
      "type": "function"
    },
    {
      "constant": false,
      "inputs": [
        {
          "name": "targetMember",
          "type": "address"
        },
        {
          "name": "memberName",
          "type": "string"
        }
      ],
      "name": "addMember",
      "outputs": [],
      "payable": false,
      "stateMutability": "nonpayable",
      "type": "function"
    },
    {
      "constant": false,
      "inputs": [
        {
          "name": "proposalNumber",
          "type": "uint256"
        },
        {
          "name": "supportsProposal",
          "type": "bool"
        },
        {
          "name": "justificationText",
          "type": "string"
        }
      ],
      "name": "vote",
      "outputs": [
        {
          "name": "voteID",
          "type": "uint256"
        }
      ],
      "payable": false,
      "stateMutability": "nonpayable",
      "type": "function"
    },
    {
      "constant": true,
      "inputs": [
        {
          "name": "proposalNumber",
          "type": "uint256"
        },
        {
          "name": "beneficiary",
          "type": "address"
        },
        {
          "name": "weiAmount",
          "type": "uint256"
        },
        {
          "name": "transactionBytecode",
          "type": "bytes"
        }
      ],
      "name": "checkProposalCode",
      "outputs": [
        {
          "name": "codeChecksOut",
          "type": "bool"
        }
      ],
      "payable": false,
      "stateMutability": "view",
      "type": "function"
    },
    {
      "constant": false,
      "inputs": [
        {
          "name": "newOwner",
          "type": "address"
        }
      ],
      "name": "transferOwnership",
      "outputs": [],
      "payable": false,
      "stateMutability": "nonpayable",
      "type": "function"
    },
    {
      "inputs": [
        {
          "name": "minimumQuorumForProposals",
          "type": "uint256"
        },
        {
          "name": "minutesForDebate",
          "type": "uint256"
        },
        {
          "name": "marginOfVotesForMajority",
          "type": "int256"
        }
      ],
      "payable": true,
      "stateMutability": "payable",
      "type": "constructor"
    },
    {
      "payable": true,
      "stateMutability": "payable",
      "type": "fallback"
    },
    {
      "anonymous": false,
      "inputs": [
        {
          "indexed": false,
          "name": "proposalID",
          "type": "uint256"
        },
        {
          "indexed": false,
          "name": "recipient",
          "type": "address"
        },
        {
          "indexed": false,
          "name": "amount",
          "type": "uint256"
        },
        {
          "indexed": false,
          "name": "description",
          "type": "string"
        }
      ],
      "name": "ProposalAdded",
      "type": "event"
    },
    {
      "anonymous": false,
      "inputs": [
        {
          "indexed": false,
          "name": "proposalID",
          "type": "uint256"
        },
        {
          "indexed": false,
          "name": "position",
          "type": "bool"
        },
        {
          "indexed": false,
          "name": "voter",
          "type": "address"
        },
        {
          "indexed": false,
          "name": "justification",
          "type": "string"
        }
      ],
      "name": "Voted",
      "type": "event"
    },
    {
      "anonymous": false,
      "inputs": [
        {
          "indexed": false,
          "name": "proposalID",
          "type": "uint256"
        },
        {
          "indexed": false,
          "name": "result",
          "type": "int256"
        },
        {
          "indexed": false,
          "name": "quorum",
          "type": "uint256"
        },
        {
          "indexed": false,
          "name": "active",
          "type": "bool"
        }
      ],
      "name": "ProposalTallied",
      "type": "event"
    },
    {
      "anonymous": false,
      "inputs": [
        {
          "indexed": false,
          "name": "member",
          "type": "address"
        },
        {
          "indexed": false,
          "name": "isMember",
          "type": "bool"
        }
      ],
      "name": "MembershipChanged",
      "type": "event"
    },
    {
      "anonymous": false,
      "inputs": [
        {
          "indexed": false,
          "name": "newMinimumQuorum",
          "type": "uint256"
        },
        {
          "indexed": false,
          "name": "newDebatingPeriodInMinutes",
          "type": "uint256"
        },
        {
          "indexed": false,
          "name": "newMajorityMargin",
          "type": "int256"
        }
      ],
      "name": "ChangeOfRules",
      "type": "event"
    },
    {
      "anonymous": false,
      "inputs": [
        {
          "indexed": false,
          "name": "sender",
          "type": "address"
        },
        {
          "indexed": false,
          "name": "amount",
          "type": "uint256"
        }
      ],
      "name": "receivedEther",
      "type": "event"
    },
    {
      "anonymous": false,
      "inputs": [
        {
          "indexed": false,
          "name": "_from",
          "type": "address"
        },
        {
          "indexed": false,
          "name": "_value",
          "type": "uint256"
        },
        {
          "indexed": false,
          "name": "_token",
          "type": "address"
        },
        {
          "indexed": false,
          "name": "_extraData",
          "type": "bytes"
        }
      ],
      "name": "receivedTokens",
      "type": "event"
    }
  ],
  "bytecode": "0x606060405260405160608062001a9b83398101604052808051919060200180519190602001805160008054600160a060020a03191633600160a060020a03161790559150620000609050838383640100000000620000eb810262000f5c1704565b62000089600060206040519081016040526000815264010000000062000fd26200016282021704565b600054620000e290600160a060020a031660408051908101604052600781527f666f756e64657200000000000000000000000000000000000000000000000000602082015264010000000062000fd26200016282021704565b5050506200040f565b60005433600160a060020a039081169116146200010757600080fd5b6001839055600282905560038190557fa439d3fa452be5e0e1e24a8145e715f4fd8b9c08c96a42fd82a855a85e5d57de83838360405180848152602001838152602001828152602001935050505060405180910390a1505050565b6000805433600160a060020a039081169116146200017f57600080fd5b50600160a060020a038216600090815260066020526040902054801515620001d35760078054600160a060020a038516600090815260066020526040902081905590620001d09060018301620002ab565b90505b60606040519081016040528084600160a060020a03168152602001838152602001428152506007828154811015156200020857fe5b906000526020600020906003020160008201518154600160a060020a031916600160a060020a039190911617815560208201518160010190805162000252929160200190620002df565b506040820151600290910155507f27b022af4a8347100c7a041ce5ccf8e14d644ff05de696315196faae8cd50c9b836001604051600160a060020a039092168252151560208201526040908101905180910390a1505050565b815481835581811511620002da57600302816003028360005260206000209182019101620002da919062000364565b505050565b828054600181600116156101000203166002900490600052602060002090601f016020900481019282601f106200032257805160ff191683800117855562000352565b8280016001018555821562000352579182015b828111156200035257825182559160200191906001019062000335565b5062000360929150620003a7565b5090565b620003a491905b8082111562000360578054600160a060020a03191681556000620003936001830182620003c4565b50600060028201556003016200036b565b90565b620003a491905b80821115620003605760008155600101620003ae565b50805460018160011615610100020316600290046000825580601f10620003ec57506200040c565b601f0160209004906000526020600020908101906200040c9190620003a7565b50565b61167c806200041f6000396000f3006060604052600436106100fb5763ffffffff7c0100000000000000000000000000000000000000000000000000000000600035041663013cf08b81146101415780630b1ca49a1461022c578063237e94921461024d57806339106821146102a3578063400e3949146102d45780635daf08ca146102e757806369bd34361461039d5780638160f0b5146103b05780638da5cb5b146103c35780638f4ffcb1146103f2578063aa02a90f1461045e578063b1050da514610471578063b9f256cd14610518578063bcca1fd3146105bf578063c127c247146105db578063d3c0715b1461063a578063eceb294514610698578063f2fde38b14610714575b7fa398b89ba344a0b23a0b9de53db298b2a1a868b396c1878b7e9dcbafecd49b133334604051600160a060020a03909216825260208201526040908101905180910390a1005b341561014c57600080fd5b610157600435610733565b604051600160a060020a038a1681526020810189905260608101879052851515608082015284151560a082015260c0810184905260e08101839052610100808201839052610120604083018181528a54600260018216159094026000190116929092049083018190526101408301908a9080156102155780601f106101ea57610100808354040283529160200191610215565b820191906000526020600020905b8154815290600101906020018083116101f857829003601f168201915b50509a505050505050505050505060405180910390f35b341561023757600080fd5b61024b600160a060020a0360043516610797565b005b341561025857600080fd5b61024b600480359060446024803590810190830135806020601f820181900481020160405190810160405281815292919060208401838380828437509496506108f695505050505050565b34156102ae57600080fd5b6102c2600160a060020a0360043516610b31565b60405190815260200160405180910390f35b34156102df57600080fd5b6102c2610b43565b34156102f257600080fd5b6102fd600435610b49565b604051600160a060020a0384168152604081018290526060602082018181528454600260001961010060018416150201909116049183018290529060808301908590801561038c5780601f106103615761010080835404028352916020019161038c565b820191906000526020600020905b81548152906001019060200180831161036f57829003601f168201915b505094505050505060405180910390f35b34156103a857600080fd5b6102c2610b84565b34156103bb57600080fd5b6102c2610b8a565b34156103ce57600080fd5b6103d6610b90565b604051600160a060020a03909116815260200160405180910390f35b34156103fd57600080fd5b61024b60048035600160a060020a0390811691602480359260443516919060849060643590810190830135806020601f82018190048102016040519081016040528181529291906020840183838082843750949650610b9f95505050505050565b341561046957600080fd5b6102c2610d0c565b341561047c57600080fd5b6102c260048035600160a060020a03169060248035919060649060443590810190830135806020601f8201819004810201604051908101604052818152929190602084018383808284378201915050505050509190803590602001908201803590602001908080601f016020809104026020016040519081016040528181529291906020840183838082843750949650610d1295505050505050565b341561052357600080fd5b6102c260048035600160a060020a03169060248035919060649060443590810190830135806020601f8201819004810201604051908101604052818152929190602084018383808284378201915050505050509190803590602001908201803590602001908080601f016020809104026020016040519081016040528181529291906020840183838082843750949650610f1995505050505050565b34156105ca57600080fd5b61024b600435602435604435610f5c565b34156105e657600080fd5b61024b60048035600160a060020a03169060446024803590810190830135806020601f82018190048102016040519081016040528181529291906020840183838082843750949650610fd295505050505050565b341561064557600080fd5b6102c26004803590602480351515919060649060443590810190830135806020601f8201819004810201604051908101604052818152929190602084018383808284375094965061111495505050505050565b34156106a357600080fd5b610700600480359060248035600160a060020a0316916044359160849060643590810190830135806020601f8201819004810201604051908101604052818152929190602084018383808284375094965061129e95505050505050565b604051901515815260200160405180910390f35b341561071f57600080fd5b61024b600160a060020a0360043516611357565b600480548290811061074157fe5b60009182526020909120600a909102018054600182015460038301546004840154600585015460068601546007870154600160a060020a039096169750939560020194929360ff80841694610100909404169289565b6000805433600160a060020a039081169116146107b357600080fd5b600160a060020a03821660009081526006602052604090205415156107d757600080fd5b50600160a060020a0381166000908152600660205260409020545b6007546000190181101561089757600780546001830190811061081157fe5b906000526020600020906003020160078281548110151561082e57fe5b6000918252602090912082546003909202018054600160a060020a031916600160a060020a039092169190911781556001808301805461088592808501929160026000199282161561010002929092011604611394565b506002918201549101556001016107f2565b6007805460001981019081106108a957fe5b6000918252602082206003909102018054600160a060020a0319168155906108d46001830182611419565b5060006002919091015560078054906108f1906000198301611460565b505050565b600060048381548110151561090757fe5b90600052602060002090600a0201905080600301544211801561092f5750600481015460ff16155b80156109d4575080546001820154600160a060020a0390911690836040516c01000000000000000000000000600160a060020a038516028152601481018390526034810182805190602001908083835b6020831061099e5780518252601f19909201916020918201910161097f565b6001836020036101000a038019825116818451161790925250505091909101945060409350505050519081900390206007820154145b80156109e65750600154816005015410155b15156109f157600080fd5b60035481600601541315610ab55760048101805460ff19166001908117909155815490820154600160a060020a03909116908360405180828051906020019080838360005b83811015610a4e578082015183820152602001610a36565b50505050905090810190601f168015610a7b5780820380516001836020036101000a031916815260200191505b5091505060006040518083038185876187965a03f1925050501515610a9f57600080fd5b60048101805461ff001916610100179055610ac3565b60048101805461ff00191690555b7fd220b7272a8b6d0d7d6bcdace67b936a8f175e6d5c1b3ee438b72256b32ab3af83826006015483600501548460040160019054906101000a900460ff16604051938452602084019290925260408084019190915290151560608301526080909101905180910390a1505050565b60066020526000908152604090205481565b60055481565b6007805482908110610b5757fe5b6000918252602090912060039091020180546002820154600160a060020a03909116925060019091019083565b60025481565b60015481565b600054600160a060020a031681565b81600160a060020a0381166323b872dd8630876000604051602001526040517c010000000000000000000000000000000000000000000000000000000063ffffffff8616028152600160a060020a0393841660048201529190921660248201526044810191909152606401602060405180830381600087803b1515610c2357600080fd5b6102c65a03f11515610c3457600080fd5b505050604051805190501515610c4957600080fd5b7f0eeb71b8926d7ed8f47a2cedf6b9b204e2001344c7fa20c696c9f06ea7c413c685858585604051600160a060020a038086168252602082018590528316604082015260806060820181815290820183818151815260200191508051906020019080838360005b83811015610cc8578082015183820152602001610cb0565b50505050905090810190601f168015610cf55780820380516001836020036101000a031916815260200191505b509550505050505060405180910390a15050505050565b60035481565b600160a060020a03331660009081526006602052604081205481901515610d3857600080fd5b6004805490610d4a906001830161148c565b9150600482815481101515610d5b57fe5b60009182526020909120600a909102018054600160a060020a031916600160a060020a03881617815560018101869055905060028101848051610da29291602001906114b8565b508585846040516c01000000000000000000000000600160a060020a038516028152601481018390526034810182805190602001908083835b60208310610dfa5780518252601f199092019160209182019101610ddb565b6001836020036101000a038019825116818451161790925250505091909101945060409350505050519081900390206007820155600254603c024201600382015560048101805461ffff19169055600060058201557f646fec02522b41e7125cfc859a64fd4f4cefd5dc3b6237ca0abe251ded1fa88182878787604051848152600160a060020a03841660208201526040810183905260806060820181815290820183818151815260200191508051906020019080838360005b83811015610ecc578082015183820152602001610eb4565b50505050905090810190601f168015610ef95780820380516001836020036101000a031916815260200191505b509550505050505060405180910390a16001820160055550949350505050565b600160a060020a0333166000908152600660205260408120541515610f3d57600080fd5b610f538585670de0b6b3a7640000028585610d12565b95945050505050565b60005433600160a060020a03908116911614610f7757600080fd5b6001839055600282905560038190557fa439d3fa452be5e0e1e24a8145e715f4fd8b9c08c96a42fd82a855a85e5d57de83838360405180848152602001838152602001828152602001935050505060405180910390a1505050565b6000805433600160a060020a03908116911614610fee57600080fd5b50600160a060020a03821660009081526006602052604090205480151561103f5760078054600160a060020a03851660009081526006602052604090208190559061103c9060018301611460565b90505b60606040519081016040528084600160a060020a031681526020018381526020014281525060078281548110151561107357fe5b906000526020600020906003020160008201518154600160a060020a031916600160a060020a03919091161781556020820151816001019080516110bb9291602001906114b8565b506040820151600290910155507f27b022af4a8347100c7a041ce5ccf8e14d644ff05de696315196faae8cd50c9b836001604051600160a060020a039092168252151560208201526040908101905180910390a1505050565b600160a060020a0333166000908152600660205260408120548190151561113a57600080fd5b600480548690811061114857fe5b60009182526020808320600160a060020a03331684526009600a90930201918201905260409091205490915060ff161561118157600080fd5b600160a060020a03331660009081526009820160205260409020805460ff19166001908117909155600582018054909101905583156111ca5760068101805460010190556111d7565b6006810180546000190190555b7fc34f869b7ff431b034b7b9aea9822dac189a685e0b015c7d1be3add3f89128e8858533866040518481528315156020820152600160a060020a038316604082015260806060820181815290820183818151815260200191508051906020019080838360005b8381101561125557808201518382015260200161123d565b50505050905090810190601f1680156112825780820380516001836020036101000a031916815260200191505b509550505050505060405180910390a160050154949350505050565b6000806004868154811015156112b057fe5b90600052602060002090600a020190508484846040516c01000000000000000000000000600160a060020a038516028152601481018390526034810182805190602001908083835b602083106113175780518252601f1990920191602091820191016112f8565b6001836020036101000a03801982511681845116179092525050509190910194506040935050505051908190039020600782015414915050949350505050565b60005433600160a060020a0390811691161461137257600080fd5b60008054600160a060020a031916600160a060020a0392909216919091179055565b828054600181600116156101000203166002900490600052602060002090601f016020900481019282601f106113cd5780548555611409565b8280016001018555821561140957600052602060002091601f016020900482015b828111156114095782548255916001019190600101906113ee565b50611415929150611526565b5090565b50805460018160011615610100020316600290046000825580601f1061143f575061145d565b601f01602090049060005260206000209081019061145d9190611526565b50565b8154818355818115116108f1576003028160030283600052602060002091820191016108f19190611543565b8154818355818115116108f157600a0281600a0283600052602060002091820191016108f1919061157e565b828054600181600116156101000203166002900490600052602060002090601f016020900481019282601f106114f957805160ff1916838001178555611409565b82800160010185558215611409579182015b8281111561140957825182559160200191906001019061150b565b61154091905b80821115611415576000815560010161152c565b90565b61154091905b80821115611415578054600160a060020a0319168155600061156e6001830182611419565b5060006002820155600301611549565b61154091905b80821115611415578054600160a060020a03191681556000600182018190556115b06002830182611419565b60006003830181905560048301805461ffff191690556005830181905560068301819055600783018190556115e99060088401906115f2565b50600a01611584565b508054600082556002029060005260206000209081019061145d919061154091905b8082111561141557805474ffffffffffffffffffffffffffffffffffffffffff1916815560006116476001830182611419565b506002016116145600a165627a7a7230582003578b88d3a43ee2ed99063dfc1d5ed00b36163a3f11c8ce4f01d56766affed00029",
  "source": "pragma solidity ^0.4.16;\n\ncontract owned {\n    address public owner;\n\n    function owned()  public {\n        owner = msg.sender;\n    }\n\n    modifier onlyOwner {\n        require(msg.sender == owner);\n        _;\n    }\n\n    function transferOwnership(address newOwner) onlyOwner  public {\n        owner = newOwner;\n    }\n}\n\ncontract tokenRecipient {\n    event receivedEther(address sender, uint amount);\n    event receivedTokens(address _from, uint256 _value, address _token, bytes _extraData);\n\n    function receiveApproval(address _from, uint256 _value, address _token, bytes _extraData) public {\n        Token t = Token(_token);\n        require(t.transferFrom(_from, this, _value));\n        receivedTokens(_from, _value, _token, _extraData);\n    }\n\n    function () payable  public {\n        receivedEther(msg.sender, msg.value);\n    }\n}\n\ninterface Token {\n    function transferFrom(address _from, address _to, uint256 _value) public returns (bool success);\n}\n\ncontract Congress is owned, tokenRecipient {\n    // Contract Variables and events\n    uint public minimumQuorum;\n    uint public debatingPeriodInMinutes;\n    int public majorityMargin;\n    Proposal[] public proposals;\n    uint public numProposals;\n    mapping (address => uint) public memberId;\n    Member[] public members;\n\n    event ProposalAdded(uint proposalID, address recipient, uint amount, string description);\n    event Voted(uint proposalID, bool position, address voter, string justification);\n    event ProposalTallied(uint proposalID, int result, uint quorum, bool active);\n    event MembershipChanged(address member, bool isMember);\n    event ChangeOfRules(uint newMinimumQuorum, uint newDebatingPeriodInMinutes, int newMajorityMargin);\n\n    struct Proposal {\n        address recipient;\n        uint amount;\n        string description;\n        uint votingDeadline;\n        bool executed;\n        bool proposalPassed;\n        uint numberOfVotes;\n        int currentResult;\n        bytes32 proposalHash;\n        Vote[] votes;\n        mapping (address => bool) voted;\n    }\n\n    struct Member {\n        address member;\n        string name;\n        uint memberSince;\n    }\n\n    struct Vote {\n        bool inSupport;\n        address voter;\n        string justification;\n    }\n\n    // Modifier that allows only shareholders to vote and create new proposals\n    modifier onlyMembers {\n        require(memberId[msg.sender] != 0);\n        _;\n    }\n\n    /**\n     * Constructor function\n     */\n    function Congress (\n        uint minimumQuorumForProposals,\n        uint minutesForDebate,\n        int marginOfVotesForMajority\n    )  payable public {\n        changeVotingRules(minimumQuorumForProposals, minutesForDebate, marginOfVotesForMajority);\n        // Its necessary to add an empty first member\n        addMember(0, \"\");\n        // and let's add the founder, to save a step later\n        addMember(owner, 'founder');\n    }\n\n    /**\n     * Add member\n     *\n     * Make `targetMember` a member named `memberName`\n     *\n     * @param targetMember ethereum address to be added\n     * @param memberName public name for that member\n     */\n    function addMember(address targetMember, string memberName) onlyOwner public {\n        uint id = memberId[targetMember];\n        if (id == 0) {\n            memberId[targetMember] = members.length;\n            id = members.length++;\n        }\n\n        members[id] = Member({member: targetMember, memberSince: now, name: memberName});\n        MembershipChanged(targetMember, true);\n    }\n\n    /**\n     * Remove member\n     *\n     * @notice Remove membership from `targetMember`\n     *\n     * @param targetMember ethereum address to be removed\n     */\n    function removeMember(address targetMember) onlyOwner public {\n        require(memberId[targetMember] != 0);\n\n        for (uint i = memberId[targetMember]; i<members.length-1; i++){\n            members[i] = members[i+1];\n        }\n        delete members[members.length-1];\n        members.length--;\n    }\n\n    /**\n     * Change voting rules\n     *\n     * Make so that proposals need to be discussed for at least `minutesForDebate/60` hours,\n     * have at least `minimumQuorumForProposals` votes, and have 50% + `marginOfVotesForMajority` votes to be executed\n     *\n     * @param minimumQuorumForProposals how many members must vote on a proposal for it to be executed\n     * @param minutesForDebate the minimum amount of delay between when a proposal is made and when it can be executed\n     * @param marginOfVotesForMajority the proposal needs to have 50% plus this number\n     */\n    function changeVotingRules(\n        uint minimumQuorumForProposals,\n        uint minutesForDebate,\n        int marginOfVotesForMajority\n    ) onlyOwner public {\n        minimumQuorum = minimumQuorumForProposals;\n        debatingPeriodInMinutes = minutesForDebate;\n        majorityMargin = marginOfVotesForMajority;\n\n        ChangeOfRules(minimumQuorum, debatingPeriodInMinutes, majorityMargin);\n    }\n\n    /**\n     * Add Proposal\n     *\n     * Propose to send `weiAmount / 1e18` ether to `beneficiary` for `jobDescription`. `transactionBytecode ? Contains : Does not contain` code.\n     *\n     * @param beneficiary who to send the ether to\n     * @param weiAmount amount of ether to send, in wei\n     * @param jobDescription Description of job\n     * @param transactionBytecode bytecode of transaction\n     */\n    function newProposal(\n        address beneficiary,\n        uint weiAmount,\n        string jobDescription,\n        bytes transactionBytecode\n    )\n        onlyMembers public\n        returns (uint proposalID)\n    {\n        proposalID = proposals.length++;\n        Proposal storage p = proposals[proposalID];\n        p.recipient = beneficiary;\n        p.amount = weiAmount;\n        p.description = jobDescription;\n        p.proposalHash = keccak256(beneficiary, weiAmount, transactionBytecode);\n        p.votingDeadline = now + debatingPeriodInMinutes * 1 minutes;\n        p.executed = false;\n        p.proposalPassed = false;\n        p.numberOfVotes = 0;\n        ProposalAdded(proposalID, beneficiary, weiAmount, jobDescription);\n        numProposals = proposalID+1;\n\n        return proposalID;\n    }\n\n    /**\n     * Add proposal in Ether\n     *\n     * Propose to send `etherAmount` ether to `beneficiary` for `jobDescription`. `transactionBytecode ? Contains : Does not contain` code.\n     * This is a convenience function to use if the amount to be given is in round number of ether units.\n     *\n     * @param beneficiary who to send the ether to\n     * @param etherAmount amount of ether to send\n     * @param jobDescription Description of job\n     * @param transactionBytecode bytecode of transaction\n     */\n    function newProposalInEther(\n        address beneficiary,\n        uint etherAmount,\n        string jobDescription,\n        bytes transactionBytecode\n    )\n        onlyMembers public\n        returns (uint proposalID)\n    {\n        return newProposal(beneficiary, etherAmount * 1 ether, jobDescription, transactionBytecode);\n    }\n\n    /**\n     * Check if a proposal code matches\n     *\n     * @param proposalNumber ID number of the proposal to query\n     * @param beneficiary who to send the ether to\n     * @param weiAmount amount of ether to send\n     * @param transactionBytecode bytecode of transaction\n     */\n    function checkProposalCode(\n        uint proposalNumber,\n        address beneficiary,\n        uint weiAmount,\n        bytes transactionBytecode\n    )\n        constant public\n        returns (bool codeChecksOut)\n    {\n        Proposal storage p = proposals[proposalNumber];\n        return p.proposalHash == keccak256(beneficiary, weiAmount, transactionBytecode);\n    }\n\n    /**\n     * Log a vote for a proposal\n     *\n     * Vote `supportsProposal? in support of : against` proposal #`proposalNumber`\n     *\n     * @param proposalNumber number of proposal\n     * @param supportsProposal either in favor or against it\n     * @param justificationText optional justification text\n     */\n    function vote(\n        uint proposalNumber,\n        bool supportsProposal,\n        string justificationText\n    )\n        onlyMembers public\n        returns (uint voteID)\n    {\n        Proposal storage p = proposals[proposalNumber];         // Get the proposal\n        require(!p.voted[msg.sender]);         // If has already voted, cancel\n        p.voted[msg.sender] = true;                     // Set this voter as having voted\n        p.numberOfVotes++;                              // Increase the number of votes\n        if (supportsProposal) {                         // If they support the proposal\n            p.currentResult++;                          // Increase score\n        } else {                                        // If they don't\n            p.currentResult--;                          // Decrease the score\n        }\n\n        // Create a log of this event\n        Voted(proposalNumber,  supportsProposal, msg.sender, justificationText);\n        return p.numberOfVotes;\n    }\n\n    /**\n     * Finish vote\n     *\n     * Count the votes proposal #`proposalNumber` and execute it if approved\n     *\n     * @param proposalNumber proposal number\n     * @param transactionBytecode optional: if the transaction contained a bytecode, you need to send it\n     */\n    function executeProposal(uint proposalNumber, bytes transactionBytecode) public {\n        Proposal storage p = proposals[proposalNumber];\n\n        require(now > p.votingDeadline                                            // If it is past the voting deadline\n            && !p.executed                                                         // and it has not already been executed\n            && p.proposalHash == keccak256(p.recipient, p.amount, transactionBytecode)  // and the supplied code matches the proposal\n            && p.numberOfVotes >= minimumQuorum);                                  // and a minimum quorum has been reached...\n\n        // ...then execute result\n\n        if (p.currentResult > majorityMargin) {\n            // Proposal passed; execute the transaction\n\n            p.executed = true; // Avoid recursive calling\n            require(p.recipient.call.value(p.amount)(transactionBytecode));\n\n            p.proposalPassed = true;\n        } else {\n            // Proposal failed\n            p.proposalPassed = false;\n        }\n\n        // Fire Events\n        ProposalTallied(proposalNumber, p.currentResult, p.numberOfVotes, p.proposalPassed);\n    }\n}\n",
  "sourcePath": "/Users/p/src/regen-network-mvp/contracts/dao/contracts/Congress.sol",
  "compiler": {
    "name": "solc",
    "version": "0.4.18+commit.9cf6e910.Emscripten.clang"
  },
  "schemaVersion": "1.0.1",
  "updatedAt": "2018-01-21T21:44:10.018Z"
}